:100000000C9462000C948A000C948A000C948A0070
:100010000C948A000C948A000C948A000C948A0038
:100020000C948A000C948A000C948A000C948A0028
:100030000C948A000C948A000C948A000C948A0018
:100040000C944A020C948A000C94BA020C94940208
:100050000C948A000C948A000C948A000C948A00F8
:100060000C948A000C948A000000000024002700F1
:100070002A0000000000250028002B0000000000DE
:1000800023002600290004040404040404040202DA
:100090000202020203030303030301020408102007
:1000A0004080010204081020010204081020000012
:1000B0000008000201000003040700000000000027
:1000C0000000AD0311241FBECFEFD8E0DEBFCDBFCF
:1000D00011E0A0E0B1E0E4ECF7E002C005900D9281
:1000E000A231B107D9F721E0A2E1B1E001C01D9230
:1000F000A83BB207E1F710E0C2E6D0E004C02197C8
:10010000FE010E94DA03C136D107C9F70E94EC0252
:100110000C94E0030C940000AF92BF92CF92DF9258
:10012000EF92FF920F931F93CF93DF936C017B01AC
:100130008B01040F151FEB015E01AE18BF08C0173D
:10014000D10759F06991D601ED91FC910190F081B0
:10015000E02DC6010995892B79F7C501DF91CF9173
:100160001F910F91FF90EF90DF90CF90BF90AF90D5
:100170000895FC01538D448D252F30E0842F90E0AD
:10018000821B930B541710F0CF9608950197089592
:10019000FC01918D828D981761F0A28DAE0FBF2F5B
:1001A000B11D5D968C91928D9F5F9F73928F90E0B1
:1001B00008958FEF9FEF0895FC01918D828D981720
:1001C00031F0828DE80FF11D858D90E008958FEF5D
:1001D0009FEF0895FC01918D228D892F90E0805C26
:1001E0009F4F821B91098F739927089582E191E0B7
:1001F0000E94EA0021E0892B09F420E0822F089573
:1002000080E090E0892B29F00E94F60081110C9487
:1002100000000895FC01A48DA80FB92FB11DA35AA9
:10022000BF4F2C91848D90E001968F739927848F16
:10023000A689B7892C93A089B1898C918370806439
:100240008C93938D848D981306C00288F389E02DDA
:1002500080818F7D80830895EF92FF920F931F938B
:10026000CF93DF93EC0181E0888F9B8D8C8D981369
:100270001AC0E889F989808185FF15C09FB7F89475
:10028000EE89FF896083E889F989808183708064C1
:1002900080839FBF81E090E0DF91CF911F910F910C
:1002A000FF90EF900895F62E0B8D10E00F5F1F4F1B
:1002B0000F731127E02E8C8D8E110CC00FB607FC2A
:1002C000FACFE889F989808185FFF5CFCE010E94B8
:1002D0000A01F1CFEB8DEC0FFD2FF11DE35AFF4F1B
:1002E000F0829FB7F8940B8FEA89FB898081806246
:1002F000CFCFCF93DF93EC01888D8823B9F0AA8903
:10030000BB89E889F9898C9185FD03C0808186FDD0
:100310000DC00FB607FCF7CF8C9185FFF2CF80811F
:1003200085FFEDCFCE010E940A01E9CFDF91CF9189
:100330000895833081F028F4813099F08230A9F05B
:1003400008958730A9F08830C9F08430B1F48091E5
:1003500080008F7D03C0809180008F778093800024
:10036000089584B58F7784BD089584B58F7DFBCFC4
:100370008091B0008F778093B00008958091B00095
:100380008F7DF9CFCF93DF93282F30E0F901E2552D
:10039000FF4F8491F901E656FF4FD491F901EA57D6
:1003A000FF4FC491CC23A1F081110E949901EC2F41
:1003B000F0E0EE0FFF1FE458FF4FA591B491EC91D0
:1003C000ED2381E090E009F480E0DF91CF91089582
:1003D00080E090E0FACF1F93CF93DF93282F30E097
:1003E000F901E255FF4F8491F901E656FF4FD49190
:1003F000F901EA57FF4FC491CC23A9F0162F8111C0
:100400000E949901EC2FF0E0EE0FFF1FEE58FF4F16
:10041000A591B4918FB7F894EC91111108C0D095C3
:10042000DE23DC938FBFDF91CF911F910895DE2BE8
:10043000F8CFCF93DF9390E0FC01E656FF4F249175
:100440008A579F4FFC0184918823D1F090E0880F58
:10045000991FFC01E859FF4FA591B491FC01EE589A
:10046000FF4FC591D49161110EC09FB7F8948C9144
:10047000E22FE0958E238C932881E223E8839FBFAF
:10048000DF91CF9108958FB7F894EC91E22BEC9324
:100490008FBFF6CF1F920F920FB60F9211242F939A
:1004A0003F938F939F93AF93BF938091B4019091AB
:1004B000B501A091B601B091B7013091B30123E02D
:1004C000230F2D3758F50196A11DB11D2093B301BF
:1004D0008093B4019093B501A093B601B093B70196
:1004E0008091AF019091B001A091B101B091B201A2
:1004F0000196A11DB11D8093AF019093B001A0930F
:10050000B101B093B201BF91AF919F918F913F9193
:100510002F910F900FBE0F901F90189526E8230F74
:100520000296A11DB11DD2CF1F920F920FB60F924E
:1005300011242F933F934F935F936F937F938F93E8
:100540009F93AF93BF93EF93FF9382E191E00E945B
:100550000A01FF91EF91BF91AF919F918F917F9190
:100560006F915F914F913F912F910F900FBE0F9020
:100570001F9018951F920F920FB60F9211242F9370
:100580008F939F93EF93FF93E0912201F0912301CA
:100590008081E0912801F091290182FD1BC09081AA
:1005A00080912B018F5F8F7320912C01821741F076
:1005B000E0912B01F0E0EE5EFE4F958F80932B01D2
:1005C000FF91EF919F918F912F910F900FBE0F9000
:1005D0001F9018958081F4CF789484B5826084BD93
:1005E00084B5816084BD85B5826085BD85B5816037
:1005F00085BD80916E00816080936E0010928100B5
:10060000809181008260809381008091810081606F
:100610008093810080918000816080938000809130
:10062000B10084608093B1008091B00081608093BC
:10063000B00080917A00846080937A0080917A0083
:10064000826080937A0080917A00816080937A0042
:1006500080917A00806880937A001092C100E091C6
:100660002201F091230182E08083E0911E01F0914C
:100670001F011082E0912001F09121018FEC808315
:1006800010922A01E0912601F091270186E08083F3
:10069000E0912401F0912501808180618083E091C7
:1006A0002401F0912501808188608083E0912401FC
:1006B000F0912501808180688083E0912401F09190
:1006C000250180818F7D808361E08CE00E9419028A
:1006D00061E08BE00E94190260E083E00E94190251
:1006E00060E082E00E941902C0E0D0E083E00E9456
:1006F000C201019741F561E08CE00E94EB0165E7E2
:1007000082E191E00E942C0182E191E00E94790156
:1007100082E00E94C2010197D9F461E08BE00E945F
:10072000EB0164E682E191E00E942C0182E191E01C
:100730000E9479012097D1F20E94F6008823B1F23D
:100740000E940000D3CF60E08CE00E94EB01E0CF7C
:1007500060E08BE00E94EB01EDCFE2E1F1E013827B
:10076000128288EE93E0A0E0B0E084839583A683B4
:10077000B78384E091E09183808385EC90E0958756
:10078000848784EC90E09787868780EC90E0918B5B
:10079000808B81EC90E0938B828B82EC90E0958B48
:1007A000848B86EC90E0978B868B118E128E138E45
:1007B000148E0895EE0FFF1F0590F491E02D09941B
:0407C000F894FFCFDB
:1007C400000000002C018C00B9007901EA00C80087
:0207D400DC0047
:00000001FF
